{
  "contractName": "Artist",
  "abi": [
    {
      "constant": true,
      "inputs": [],
      "name": "goal",
      "outputs": [
        {
          "name": "",
          "type": "uint256"
        }
      ],
      "payable": false,
      "stateMutability": "view",
      "type": "function"
    },
    {
      "constant": true,
      "inputs": [],
      "name": "artist",
      "outputs": [
        {
          "name": "",
          "type": "address"
        }
      ],
      "payable": false,
      "stateMutability": "view",
      "type": "function"
    },
    {
      "constant": true,
      "inputs": [],
      "name": "donations",
      "outputs": [
        {
          "name": "",
          "type": "uint256"
        }
      ],
      "payable": false,
      "stateMutability": "view",
      "type": "function"
    },
    {
      "inputs": [
        {
          "name": "minLimit",
          "type": "uint256"
        }
      ],
      "payable": false,
      "stateMutability": "nonpayable",
      "type": "constructor"
    },
    {
      "anonymous": false,
      "inputs": [
        {
          "indexed": false,
          "name": "_from",
          "type": "address"
        },
        {
          "indexed": false,
          "name": "_amount",
          "type": "uint256"
        }
      ],
      "name": "Investment",
      "type": "event"
    },
    {
      "anonymous": false,
      "inputs": [
        {
          "indexed": false,
          "name": "_from",
          "type": "address"
        },
        {
          "indexed": false,
          "name": "_amount",
          "type": "uint256"
        }
      ],
      "name": "Donation",
      "type": "event"
    },
    {
      "anonymous": false,
      "inputs": [
        {
          "indexed": false,
          "name": "_to",
          "type": "address"
        },
        {
          "indexed": false,
          "name": "_amount",
          "type": "uint256"
        }
      ],
      "name": "Withdraw",
      "type": "event"
    },
    {
      "constant": true,
      "inputs": [
        {
          "name": "_address",
          "type": "address"
        }
      ],
      "name": "getInvestor",
      "outputs": [
        {
          "name": "",
          "type": "uint256"
        }
      ],
      "payable": false,
      "stateMutability": "view",
      "type": "function"
    },
    {
      "constant": false,
      "inputs": [],
      "name": "makeInvestment",
      "outputs": [],
      "payable": true,
      "stateMutability": "payable",
      "type": "function"
    },
    {
      "constant": false,
      "inputs": [],
      "name": "destroy",
      "outputs": [],
      "payable": false,
      "stateMutability": "nonpayable",
      "type": "function"
    }
  ],
  "bytecode": "0x6060604052341561000f57600080fd5b60405160208061044783398101604052808051906020019091905050336000806101000a81548173ffffffffffffffffffffffffffffffffffffffff021916908373ffffffffffffffffffffffffffffffffffffffff160217905550806001819055506000600281905550506103bd8061008a6000396000f300606060405260043610610078576000357c0100000000000000000000000000000000000000000000000000000000900463ffffffff168063401938831461007d57806343bc1612146100a657806383197ef0146100fb5780638f35a75e14610110578063c78bd0601461015d578063e8757d1914610167575b600080fd5b341561008857600080fd5b610090610190565b6040518082815260200191505060405180910390f35b34156100b157600080fd5b6100b9610196565b604051808273ffffffffffffffffffffffffffffffffffffffff1673ffffffffffffffffffffffffffffffffffffffff16815260200191505060405180910390f35b341561010657600080fd5b61010e6101bb565b005b341561011b57600080fd5b610147600480803573ffffffffffffffffffffffffffffffffffffffff1690602001909190505061028b565b6040518082815260200191505060405180910390f35b6101656102d7565b005b341561017257600080fd5b61017a61038b565b6040518082815260200191505060405180910390f35b60015481565b6000809054906101000a900473ffffffffffffffffffffffffffffffffffffffff1681565b6000809054906101000a900473ffffffffffffffffffffffffffffffffffffffff1673ffffffffffffffffffffffffffffffffffffffff163373ffffffffffffffffffffffffffffffffffffffff161415610289576000809054906101000a900473ffffffffffffffffffffffffffffffffffffffff1673ffffffffffffffffffffffffffffffffffffffff166108fc3073ffffffffffffffffffffffffffffffffffffffff16319081150290604051600060405180830381858888f19350505050151561028857600080fd5b5b565b6000600360008373ffffffffffffffffffffffffffffffffffffffff1673ffffffffffffffffffffffffffffffffffffffff168152602001908152602001600020600001549050919050565b34600360003373ffffffffffffffffffffffffffffffffffffffff1673ffffffffffffffffffffffffffffffffffffffff168152602001908152602001600020600001819055507ffe123a1efb6782dccd20e9790951adcfab3cd0e11b85a6f06d8b9222d299a0a33334604051808373ffffffffffffffffffffffffffffffffffffffff1673ffffffffffffffffffffffffffffffffffffffff1681526020018281526020019250505060405180910390a1565b600254815600a165627a7a72305820d8d0dd16074721ddde26981244aa41b3179806c38e5767967e8ecac4c6bc0fdb0029",
  "source": "pragma solidity ^0.4.17;\n\ncontract Artist {\n\taddress public artist;\n\tuint public goal;\n\tuint public donations;\n\tstruct Investor {\n\t\tuint inversion;\n\t}\n\n\tmapping (address => Investor) investors;\n\n\t// log investments\n\tevent Investment(address _from, uint _amount);\n\t// log donations\n\tevent Donation(address _from, uint _amount);\n\t// log the refund\n\tevent Withdraw(address _to, uint _amount);\n\n\tfunction Artist (uint minLimit) public {\n\t\tartist = msg.sender;\n\t\tgoal = minLimit;\n\t\tdonations = 0;\n\t}\n\n    // Get investor info\n    function getInvestor(address _address) view public returns (uint) {\n        return (investors[_address].inversion);\n    }\n\n\t// Make investment\n\tfunction makeInvestment() public payable {\n\t\t// if (this.balance >= goal) {\n\t\t// \tmakeDonation(msg.sender, msg.value);\n\t\t// }\n\t\tinvestors[msg.sender].inversion = msg.value;\n\t\tInvestment(msg.sender, msg.value);\n\t}\n\n\t// Gets balance of the contract\n\tfunction getContractBalance() internal view returns (uint){\n    \treturn this.balance;\n  \t}\n\n  \t// so funds dont stay in contract forever\n  \tfunction destroy() public {\n\t    if (msg.sender == artist) {\n\t        artist.transfer(this.balance); // send funds to artist\n\t    }\n\t}\n\n\t// When goal is reached, makes donations without saving address\n\t// function makeDonation(address from, uint donation) public payable {\n\t// \trequire(this.balance >= goal);\n\t// \tDonation(from, donation);\n\t// \tdonations++;\n\t// }\n}",
  "sourcePath": "/Users/jesusgarcia/Desktop/nodon/contracts/Artist.sol",
  "compiler": {
    "name": "solc",
    "version": "0.4.19+commit.c4cbbb05.Emscripten.clang"
  },
  "schemaVersion": "2.0.0",
  "updatedAt": "2018-03-03T17:13:27.368Z"
}