{
  "contractName": "Artist",
  "abi": [
    {
      "constant": true,
      "inputs": [],
      "name": "goal",
      "outputs": [
        {
          "name": "",
          "type": "uint256"
        }
      ],
      "payable": false,
      "stateMutability": "view",
      "type": "function"
    },
    {
      "constant": true,
      "inputs": [],
      "name": "artist",
      "outputs": [
        {
          "name": "",
          "type": "address"
        }
      ],
      "payable": false,
      "stateMutability": "view",
      "type": "function"
    },
    {
      "constant": true,
      "inputs": [],
      "name": "donations",
      "outputs": [
        {
          "name": "",
          "type": "uint256"
        }
      ],
      "payable": false,
      "stateMutability": "view",
      "type": "function"
    },
    {
      "inputs": [
        {
          "name": "limit",
          "type": "uint256"
        }
      ],
      "payable": false,
      "stateMutability": "nonpayable",
      "type": "constructor"
    },
    {
      "anonymous": false,
      "inputs": [
        {
          "indexed": false,
          "name": "_from",
          "type": "address"
        },
        {
          "indexed": false,
          "name": "_amount",
          "type": "uint256"
        }
      ],
      "name": "Investment",
      "type": "event"
    },
    {
      "anonymous": false,
      "inputs": [
        {
          "indexed": false,
          "name": "_from",
          "type": "address"
        },
        {
          "indexed": false,
          "name": "_amount",
          "type": "uint256"
        }
      ],
      "name": "Donation",
      "type": "event"
    },
    {
      "anonymous": false,
      "inputs": [
        {
          "indexed": false,
          "name": "_to",
          "type": "address"
        },
        {
          "indexed": false,
          "name": "_amount",
          "type": "uint256"
        }
      ],
      "name": "Withdraw",
      "type": "event"
    },
    {
      "constant": true,
      "inputs": [
        {
          "name": "_address",
          "type": "address"
        }
      ],
      "name": "getInvestor",
      "outputs": [
        {
          "name": "",
          "type": "uint256"
        }
      ],
      "payable": false,
      "stateMutability": "view",
      "type": "function"
    },
    {
      "constant": false,
      "inputs": [
        {
          "name": "inversion",
          "type": "uint256"
        }
      ],
      "name": "makeInvestment",
      "outputs": [],
      "payable": false,
      "stateMutability": "nonpayable",
      "type": "function"
    },
    {
      "constant": false,
      "inputs": [],
      "name": "destroy",
      "outputs": [],
      "payable": false,
      "stateMutability": "nonpayable",
      "type": "function"
    },
    {
      "constant": false,
      "inputs": [
        {
          "name": "from",
          "type": "address"
        },
        {
          "name": "donation",
          "type": "uint256"
        }
      ],
      "name": "makeDonation",
      "outputs": [],
      "payable": false,
      "stateMutability": "nonpayable",
      "type": "function"
    }
  ],
  "bytecode": "0x6060604052341561000f57600080fd5b60405160208061058483398101604052808051906020019091905050336000806101000a81548173ffffffffffffffffffffffffffffffffffffffff021916908373ffffffffffffffffffffffffffffffffffffffff160217905550806001819055506000600281905550506104fa8061008a6000396000f300606060405260043610610083576000357c0100000000000000000000000000000000000000000000000000000000900463ffffffff168063401938831461008857806343bc1612146100b157806383197ef0146101065780638f35a75e1461011b5780639a4ce89914610168578063ba3eefc5146101aa578063e8757d19146101cd575b600080fd5b341561009357600080fd5b61009b6101f6565b6040518082815260200191505060405180910390f35b34156100bc57600080fd5b6100c46101fc565b604051808273ffffffffffffffffffffffffffffffffffffffff1673ffffffffffffffffffffffffffffffffffffffff16815260200191505060405180910390f35b341561011157600080fd5b610119610221565b005b341561012657600080fd5b610152600480803573ffffffffffffffffffffffffffffffffffffffff169060200190919050506102f1565b6040518082815260200191505060405180910390f35b341561017357600080fd5b6101a8600480803573ffffffffffffffffffffffffffffffffffffffff1690602001909190803590602001909190505061033d565b005b34156101b557600080fd5b6101cb60048080359060200190919050506103e6565b005b34156101d857600080fd5b6101e06104c8565b6040518082815260200191505060405180910390f35b60015481565b6000809054906101000a900473ffffffffffffffffffffffffffffffffffffffff1681565b6000809054906101000a900473ffffffffffffffffffffffffffffffffffffffff1673ffffffffffffffffffffffffffffffffffffffff163373ffffffffffffffffffffffffffffffffffffffff1614156102ef576000809054906101000a900473ffffffffffffffffffffffffffffffffffffffff1673ffffffffffffffffffffffffffffffffffffffff166108fc3073ffffffffffffffffffffffffffffffffffffffff16319081150290604051600060405180830381858888f1935050505015156102ee57600080fd5b5b565b6000600360008373ffffffffffffffffffffffffffffffffffffffff1673ffffffffffffffffffffffffffffffffffffffff168152602001908152602001600020600001549050919050565b6001543073ffffffffffffffffffffffffffffffffffffffff16311015151561036557600080fd5b7f5d8bc849764969eb1bcc6d0a2f55999d0167c1ccec240a4f39cf664ca9c4148e8282604051808373ffffffffffffffffffffffffffffffffffffffff1673ffffffffffffffffffffffffffffffffffffffff1681526020018281526020019250505060405180910390a16002600081548092919060010191905055505050565b6001543073ffffffffffffffffffffffffffffffffffffffff163110151561041357610412338261033d565b5b80600360003373ffffffffffffffffffffffffffffffffffffffff1673ffffffffffffffffffffffffffffffffffffffff168152602001908152602001600020600001819055507ffe123a1efb6782dccd20e9790951adcfab3cd0e11b85a6f06d8b9222d299a0a33334604051808373ffffffffffffffffffffffffffffffffffffffff1673ffffffffffffffffffffffffffffffffffffffff1681526020018281526020019250505060405180910390a150565b600254815600a165627a7a723058204c7bdb633ef717ffd015f43473e29383d8fb3186927f195846a932f4562345c30029",
  "source": "pragma solidity ^0.4.17;\n\ncontract Artist {\n\taddress public artist;\n\tuint public goal;\n\tuint public donations;\n\tstruct Investor {\n\t\tuint inversion;\n\t}\n\n\tmapping (address => Investor) investors;\n\n\t// log investments\n\tevent Investment(address _from, uint _amount);\n\t// log donations\n\tevent Donation(address _from, uint _amount);\n\t// log the refund\n\tevent Withdraw(address _to, uint _amount);\n\n\tfunction Artist (uint limit) public {\n\t\tartist = msg.sender;\n\t\tgoal = limit;\n\t\tdonations = 0;\n\t}\n    \n    // Get investor info\n    function getInvestor(address _address) view public returns (uint) {\n        return (investors[_address].inversion);\n    }\n\n\t// Make investment\n\tfunction makeInvestment(uint inversion) public {\n\t\tif (this.balance >= goal) {\n\t\t\tmakeDonation(msg.sender, inversion);\n\t\t}\n\t\tinvestors[msg.sender].inversion = inversion;\n\t\tInvestment(msg.sender, msg.value);\n\t}\n\n\t// Gets balance of the contract\n\tfunction getContractBalance() internal view returns (uint){\n    \treturn this.balance;\n  \t}\n\n  \t// so funds dont stay in contract forever\n  \tfunction destroy() public {\n\t    if (msg.sender == artist) {\n\t        artist.transfer(this.balance); // send funds to artist\n\t    }\n\t}\n\n\t// When goal is reached, makes donations without saving address\n\tfunction makeDonation(address from, uint donation) public {\n\t\trequire(this.balance >= goal);\n\t\tDonation(from, donation);\n\t\tdonations++;\n\t}\n}",
  "sourcePath": "/Users/daniella/Documents/Privado/git/nodon/contracts/Artist.sol",
  "compiler": {
    "name": "solc",
    "version": "0.4.19+commit.c4cbbb05.Emscripten.clang"
  },
  "schemaVersion": "2.0.0",
  "updatedAt": "2018-03-03T15:27:53.773Z"
}