{
  "contractName": "Artist",
  "abi": [
    {
      "constant": true,
      "inputs": [],
      "name": "goal",
      "outputs": [
        {
          "name": "",
          "type": "uint256"
        }
      ],
      "payable": false,
      "stateMutability": "view",
      "type": "function"
    },
    {
      "constant": true,
      "inputs": [],
      "name": "artist",
      "outputs": [
        {
          "name": "",
          "type": "address"
        }
      ],
      "payable": false,
      "stateMutability": "view",
      "type": "function"
    },
    {
      "constant": true,
      "inputs": [],
      "name": "donations",
      "outputs": [
        {
          "name": "",
          "type": "uint256"
        }
      ],
      "payable": false,
      "stateMutability": "view",
      "type": "function"
    },
    {
      "inputs": [
        {
          "name": "minLimit",
          "type": "uint256"
        }
      ],
      "payable": false,
      "stateMutability": "nonpayable",
      "type": "constructor"
    },
    {
      "anonymous": false,
      "inputs": [
        {
          "indexed": false,
          "name": "_from",
          "type": "address"
        },
        {
          "indexed": false,
          "name": "_amount",
          "type": "uint256"
        }
      ],
      "name": "Investment",
      "type": "event"
    },
    {
      "anonymous": false,
      "inputs": [
        {
          "indexed": false,
          "name": "_from",
          "type": "address"
        },
        {
          "indexed": false,
          "name": "_amount",
          "type": "uint256"
        }
      ],
      "name": "Donation",
      "type": "event"
    },
    {
      "anonymous": false,
      "inputs": [
        {
          "indexed": false,
          "name": "_to",
          "type": "address"
        },
        {
          "indexed": false,
          "name": "_amount",
          "type": "uint256"
        }
      ],
      "name": "Withdraw",
      "type": "event"
    },
    {
      "constant": true,
      "inputs": [
        {
          "name": "_address",
          "type": "address"
        }
      ],
      "name": "getInvestor",
      "outputs": [
        {
          "name": "",
          "type": "uint256"
        }
      ],
      "payable": false,
      "stateMutability": "view",
      "type": "function"
    },
    {
      "constant": false,
      "inputs": [],
      "name": "makeInvestment",
      "outputs": [],
      "payable": true,
      "stateMutability": "payable",
      "type": "function"
    },
    {
      "constant": true,
      "inputs": [],
      "name": "getContractBalance",
      "outputs": [
        {
          "name": "",
          "type": "uint256"
        }
      ],
      "payable": false,
      "stateMutability": "view",
      "type": "function"
    },
    {
      "constant": false,
      "inputs": [],
      "name": "destroy",
      "outputs": [],
      "payable": false,
      "stateMutability": "nonpayable",
      "type": "function"
    }
  ],
  "bytecode": "0x6060604052341561000f57600080fd5b60405160208061049d83398101604052808051906020019091905050336000806101000a81548173ffffffffffffffffffffffffffffffffffffffff021916908373ffffffffffffffffffffffffffffffffffffffff160217905550806001819055506000600281905550506104138061008a6000396000f300606060405260043610610083576000357c0100000000000000000000000000000000000000000000000000000000900463ffffffff168063401938831461008857806343bc1612146100b15780636f9fb98a1461010657806383197ef01461012f5780638f35a75e14610144578063c78bd06014610191578063e8757d191461019b575b600080fd5b341561009357600080fd5b61009b6101c4565b6040518082815260200191505060405180910390f35b34156100bc57600080fd5b6100c46101ca565b604051808273ffffffffffffffffffffffffffffffffffffffff1673ffffffffffffffffffffffffffffffffffffffff16815260200191505060405180910390f35b341561011157600080fd5b6101196101ef565b6040518082815260200191505060405180910390f35b341561013a57600080fd5b61014261020e565b005b341561014f57600080fd5b61017b600480803573ffffffffffffffffffffffffffffffffffffffff169060200190919050506102de565b6040518082815260200191505060405180910390f35b610199610327565b005b34156101a657600080fd5b6101ae6103e1565b6040518082815260200191505060405180910390f35b60015481565b6000809054906101000a900473ffffffffffffffffffffffffffffffffffffffff1681565b60003073ffffffffffffffffffffffffffffffffffffffff1631905090565b6000809054906101000a900473ffffffffffffffffffffffffffffffffffffffff1673ffffffffffffffffffffffffffffffffffffffff163373ffffffffffffffffffffffffffffffffffffffff1614156102dc576000809054906101000a900473ffffffffffffffffffffffffffffffffffffffff1673ffffffffffffffffffffffffffffffffffffffff166108fc3073ffffffffffffffffffffffffffffffffffffffff16319081150290604051600060405180830381858888f1935050505015156102db57600080fd5b5b565b6000600360008373ffffffffffffffffffffffffffffffffffffffff1673ffffffffffffffffffffffffffffffffffffffff168152602001908152602001600020549050919050565b34600360003373ffffffffffffffffffffffffffffffffffffffff1673ffffffffffffffffffffffffffffffffffffffff168152602001908152602001600020600082825401925050819055507ffe123a1efb6782dccd20e9790951adcfab3cd0e11b85a6f06d8b9222d299a0a33334604051808373ffffffffffffffffffffffffffffffffffffffff1673ffffffffffffffffffffffffffffffffffffffff1681526020018281526020019250505060405180910390a1565b600254815600a165627a7a7230582034b6e61e2e33bbcb923d70633e1875d6e411b4aefdb89515d448fead9b6274ac0029",
  "source": "pragma solidity ^0.4.17;\n\ncontract Artist {\n    address public artist;\n    uint public goal;\n    uint public donations;\n\n    mapping (address => uint) investors;\n\n    // log investments\n    event Investment(address _from, uint _amount);\n    // log donations\n    event Donation(address _from, uint _amount);\n    // log the refund\n    event Withdraw(address _to, uint _amount);\n\n    function Artist (uint minLimit) public {\n        artist = msg.sender;\n        goal = minLimit;\n        donations = 0;\n    }\n\n    // Get investor info\n    function getInvestor(address _address) view public returns (uint) {\n        return (investors[_address]);\n    }\n\n    // Make investment\n    function makeInvestment() public payable {\n        // if (this.balance >= goal) {\n        //     makeDonation(msg.sender, msg.value);\n        // }\n        investors[msg.sender] += msg.value;\n        Investment(msg.sender, msg.value);\n    }\n\n    // Gets balance of the contract\n    function getContractBalance() public view returns (uint){\n        return this.balance;\n      }\n\n      // so funds dont stay in contract forever\n      function destroy() public {\n        if (msg.sender == artist) {\n            artist.transfer(this.balance); // send funds to artist\n        }\n    }\n\n    // When goal is reached, makes donations without saving address\n    // function makeDonation(address from, uint donation) public payable {\n    //     require(this.balance >= goal);\n    //     Donation(from, donation);\n    //     donations++;\n    // }\n}\n",
  "sourcePath": "/Users/jesusgarcia/Desktop/nodon/contracts/Artist.sol",
  "compiler": {
    "name": "solc",
    "version": "0.4.19+commit.c4cbbb05.Emscripten.clang"
  },
  "schemaVersion": "2.0.0",
  "updatedAt": "2018-03-03T18:28:21.768Z"
}